{
  "_format": "hh-sol-artifact-1",
  "contractName": "EtherBoard",
  "sourceName": "contracts/EtherBoard.sol",
  "abi": [
    {
      "inputs": [],
      "stateMutability": "nonpayable",
      "type": "constructor"
    },
    {
      "anonymous": false,
      "inputs": [
        {
          "indexed": true,
          "internalType": "address",
          "name": "owner",
          "type": "address"
        },
        {
          "indexed": true,
          "internalType": "address",
          "name": "approved",
          "type": "address"
        },
        {
          "indexed": true,
          "internalType": "uint256",
          "name": "tokenId",
          "type": "uint256"
        }
      ],
      "name": "Approval",
      "type": "event"
    },
    {
      "anonymous": false,
      "inputs": [
        {
          "indexed": true,
          "internalType": "address",
          "name": "owner",
          "type": "address"
        },
        {
          "indexed": true,
          "internalType": "address",
          "name": "operator",
          "type": "address"
        },
        {
          "indexed": false,
          "internalType": "bool",
          "name": "approved",
          "type": "bool"
        }
      ],
      "name": "ApprovalForAll",
      "type": "event"
    },
    {
      "anonymous": false,
      "inputs": [
        {
          "indexed": false,
          "internalType": "uint256",
          "name": "_fromTokenId",
          "type": "uint256"
        },
        {
          "indexed": false,
          "internalType": "uint256",
          "name": "_toTokenId",
          "type": "uint256"
        }
      ],
      "name": "BatchMetadataUpdate",
      "type": "event"
    },
    {
      "anonymous": false,
      "inputs": [
        {
          "indexed": false,
          "internalType": "uint256",
          "name": "_tokenId",
          "type": "uint256"
        }
      ],
      "name": "MetadataUpdate",
      "type": "event"
    },
    {
      "anonymous": false,
      "inputs": [
        {
          "indexed": true,
          "internalType": "bytes32",
          "name": "role",
          "type": "bytes32"
        },
        {
          "indexed": true,
          "internalType": "bytes32",
          "name": "previousAdminRole",
          "type": "bytes32"
        },
        {
          "indexed": true,
          "internalType": "bytes32",
          "name": "newAdminRole",
          "type": "bytes32"
        }
      ],
      "name": "RoleAdminChanged",
      "type": "event"
    },
    {
      "anonymous": false,
      "inputs": [
        {
          "indexed": true,
          "internalType": "bytes32",
          "name": "role",
          "type": "bytes32"
        },
        {
          "indexed": true,
          "internalType": "address",
          "name": "account",
          "type": "address"
        },
        {
          "indexed": true,
          "internalType": "address",
          "name": "sender",
          "type": "address"
        }
      ],
      "name": "RoleGranted",
      "type": "event"
    },
    {
      "anonymous": false,
      "inputs": [
        {
          "indexed": true,
          "internalType": "bytes32",
          "name": "role",
          "type": "bytes32"
        },
        {
          "indexed": true,
          "internalType": "address",
          "name": "account",
          "type": "address"
        },
        {
          "indexed": true,
          "internalType": "address",
          "name": "sender",
          "type": "address"
        }
      ],
      "name": "RoleRevoked",
      "type": "event"
    },
    {
      "anonymous": false,
      "inputs": [
        {
          "indexed": true,
          "internalType": "address",
          "name": "from",
          "type": "address"
        },
        {
          "indexed": true,
          "internalType": "address",
          "name": "to",
          "type": "address"
        },
        {
          "indexed": true,
          "internalType": "uint256",
          "name": "tokenId",
          "type": "uint256"
        }
      ],
      "name": "Transfer",
      "type": "event"
    },
    {
      "inputs": [],
      "name": "DEFAULT_ADMIN_ROLE",
      "outputs": [
        {
          "internalType": "bytes32",
          "name": "",
          "type": "bytes32"
        }
      ],
      "stateMutability": "view",
      "type": "function"
    },
    {
      "inputs": [
        {
          "internalType": "address",
          "name": "to",
          "type": "address"
        },
        {
          "internalType": "uint256",
          "name": "tokenId",
          "type": "uint256"
        }
      ],
      "name": "approve",
      "outputs": [],
      "stateMutability": "nonpayable",
      "type": "function"
    },
    {
      "inputs": [
        {
          "internalType": "address",
          "name": "owner",
          "type": "address"
        }
      ],
      "name": "balanceOf",
      "outputs": [
        {
          "internalType": "uint256",
          "name": "",
          "type": "uint256"
        }
      ],
      "stateMutability": "view",
      "type": "function"
    },
    {
      "inputs": [
        {
          "internalType": "uint256",
          "name": "tokenId",
          "type": "uint256"
        }
      ],
      "name": "getApproved",
      "outputs": [
        {
          "internalType": "address",
          "name": "",
          "type": "address"
        }
      ],
      "stateMutability": "view",
      "type": "function"
    },
    {
      "inputs": [
        {
          "internalType": "uint256",
          "name": "tokenId",
          "type": "uint256"
        }
      ],
      "name": "getMessageByTokenId",
      "outputs": [
        {
          "internalType": "string",
          "name": "",
          "type": "string"
        }
      ],
      "stateMutability": "view",
      "type": "function"
    },
    {
      "inputs": [
        {
          "internalType": "bytes32",
          "name": "role",
          "type": "bytes32"
        }
      ],
      "name": "getRoleAdmin",
      "outputs": [
        {
          "internalType": "bytes32",
          "name": "",
          "type": "bytes32"
        }
      ],
      "stateMutability": "view",
      "type": "function"
    },
    {
      "inputs": [
        {
          "internalType": "bytes32",
          "name": "role",
          "type": "bytes32"
        },
        {
          "internalType": "address",
          "name": "account",
          "type": "address"
        }
      ],
      "name": "grantRole",
      "outputs": [],
      "stateMutability": "nonpayable",
      "type": "function"
    },
    {
      "inputs": [
        {
          "internalType": "bytes32",
          "name": "role",
          "type": "bytes32"
        },
        {
          "internalType": "address",
          "name": "account",
          "type": "address"
        }
      ],
      "name": "hasRole",
      "outputs": [
        {
          "internalType": "bool",
          "name": "",
          "type": "bool"
        }
      ],
      "stateMutability": "view",
      "type": "function"
    },
    {
      "inputs": [
        {
          "internalType": "address",
          "name": "owner",
          "type": "address"
        },
        {
          "internalType": "address",
          "name": "operator",
          "type": "address"
        }
      ],
      "name": "isApprovedForAll",
      "outputs": [
        {
          "internalType": "bool",
          "name": "",
          "type": "bool"
        }
      ],
      "stateMutability": "view",
      "type": "function"
    },
    {
      "inputs": [],
      "name": "name",
      "outputs": [
        {
          "internalType": "string",
          "name": "",
          "type": "string"
        }
      ],
      "stateMutability": "view",
      "type": "function"
    },
    {
      "inputs": [
        {
          "internalType": "uint256",
          "name": "tokenId",
          "type": "uint256"
        }
      ],
      "name": "ownerOf",
      "outputs": [
        {
          "internalType": "address",
          "name": "",
          "type": "address"
        }
      ],
      "stateMutability": "view",
      "type": "function"
    },
    {
      "inputs": [
        {
          "internalType": "bytes32",
          "name": "role",
          "type": "bytes32"
        },
        {
          "internalType": "address",
          "name": "account",
          "type": "address"
        }
      ],
      "name": "renounceRole",
      "outputs": [],
      "stateMutability": "nonpayable",
      "type": "function"
    },
    {
      "inputs": [
        {
          "internalType": "bytes32",
          "name": "role",
          "type": "bytes32"
        },
        {
          "internalType": "address",
          "name": "account",
          "type": "address"
        }
      ],
      "name": "revokeRole",
      "outputs": [],
      "stateMutability": "nonpayable",
      "type": "function"
    },
    {
      "inputs": [
        {
          "internalType": "address",
          "name": "to",
          "type": "address"
        },
        {
          "internalType": "string",
          "name": "uri",
          "type": "string"
        },
        {
          "internalType": "string",
          "name": "message",
          "type": "string"
        }
      ],
      "name": "safeMint",
      "outputs": [],
      "stateMutability": "nonpayable",
      "type": "function"
    },
    {
      "inputs": [
        {
          "internalType": "address",
          "name": "from",
          "type": "address"
        },
        {
          "internalType": "address",
          "name": "to",
          "type": "address"
        },
        {
          "internalType": "uint256",
          "name": "tokenId",
          "type": "uint256"
        }
      ],
      "name": "safeTransferFrom",
      "outputs": [],
      "stateMutability": "nonpayable",
      "type": "function"
    },
    {
      "inputs": [
        {
          "internalType": "address",
          "name": "from",
          "type": "address"
        },
        {
          "internalType": "address",
          "name": "to",
          "type": "address"
        },
        {
          "internalType": "uint256",
          "name": "tokenId",
          "type": "uint256"
        },
        {
          "internalType": "bytes",
          "name": "data",
          "type": "bytes"
        }
      ],
      "name": "safeTransferFrom",
      "outputs": [],
      "stateMutability": "nonpayable",
      "type": "function"
    },
    {
      "inputs": [
        {
          "internalType": "address",
          "name": "operator",
          "type": "address"
        },
        {
          "internalType": "bool",
          "name": "approved",
          "type": "bool"
        }
      ],
      "name": "setApprovalForAll",
      "outputs": [],
      "stateMutability": "nonpayable",
      "type": "function"
    },
    {
      "inputs": [
        {
          "internalType": "bytes4",
          "name": "interfaceId",
          "type": "bytes4"
        }
      ],
      "name": "supportsInterface",
      "outputs": [
        {
          "internalType": "bool",
          "name": "",
          "type": "bool"
        }
      ],
      "stateMutability": "view",
      "type": "function"
    },
    {
      "inputs": [],
      "name": "symbol",
      "outputs": [
        {
          "internalType": "string",
          "name": "",
          "type": "string"
        }
      ],
      "stateMutability": "view",
      "type": "function"
    },
    {
      "inputs": [
        {
          "internalType": "uint256",
          "name": "tokenId",
          "type": "uint256"
        }
      ],
      "name": "tokenURI",
      "outputs": [
        {
          "internalType": "string",
          "name": "",
          "type": "string"
        }
      ],
      "stateMutability": "view",
      "type": "function"
    },
    {
      "inputs": [
        {
          "internalType": "address",
          "name": "from",
          "type": "address"
        },
        {
          "internalType": "address",
          "name": "to",
          "type": "address"
        },
        {
          "internalType": "uint256",
          "name": "tokenId",
          "type": "uint256"
        }
      ],
      "name": "transferFrom",
      "outputs": [],
      "stateMutability": "nonpayable",
      "type": "function"
    }
  ],
  "bytecode": "0x60806040523480156200001157600080fd5b506040518060400160405280600a81526020017f4574686572426f617264000000000000000000000000000000000000000000008152506040518060400160405280600481526020017f455448420000000000000000000000000000000000000000000000000000000081525081600090816200008f91906200049e565b508060019081620000a191906200049e565b505050620000b96000801b33620000bf60201b60201c565b62000585565b620000d18282620001b160201b60201c565b620001ad5760016007600084815260200190815260200160002060000160008373ffffffffffffffffffffffffffffffffffffffff1673ffffffffffffffffffffffffffffffffffffffff16815260200190815260200160002060006101000a81548160ff021916908315150217905550620001526200021c60201b60201c565b73ffffffffffffffffffffffffffffffffffffffff168173ffffffffffffffffffffffffffffffffffffffff16837f2f8788117e7eff1d82e926ec794901d17c78024a50270940304540a733656f0d60405160405180910390a45b5050565b60006007600084815260200190815260200160002060000160008373ffffffffffffffffffffffffffffffffffffffff1673ffffffffffffffffffffffffffffffffffffffff16815260200190815260200160002060009054906101000a900460ff16905092915050565b600033905090565b600081519050919050565b7f4e487b7100000000000000000000000000000000000000000000000000000000600052604160045260246000fd5b7f4e487b7100000000000000000000000000000000000000000000000000000000600052602260045260246000fd5b60006002820490506001821680620002a657607f821691505b602082108103620002bc57620002bb6200025e565b5b50919050565b60008190508160005260206000209050919050565b60006020601f8301049050919050565b600082821b905092915050565b600060088302620003267fffffffffffffffffffffffffffffffffffffffffffffffffffffffffffffffff82620002e7565b620003328683620002e7565b95508019841693508086168417925050509392505050565b6000819050919050565b6000819050919050565b60006200037f6200037962000373846200034a565b62000354565b6200034a565b9050919050565b6000819050919050565b6200039b836200035e565b620003b3620003aa8262000386565b848454620002f4565b825550505050565b600090565b620003ca620003bb565b620003d781848462000390565b505050565b5b81811015620003ff57620003f3600082620003c0565b600181019050620003dd565b5050565b601f8211156200044e576200041881620002c2565b6200042384620002d7565b8101602085101562000433578190505b6200044b6200044285620002d7565b830182620003dc565b50505b505050565b600082821c905092915050565b6000620004736000198460080262000453565b1980831691505092915050565b60006200048e838362000460565b9150826002028217905092915050565b620004a98262000224565b67ffffffffffffffff811115620004c557620004c46200022f565b5b620004d182546200028d565b620004de82828562000403565b600060209050601f83116001811462000516576000841562000501578287015190505b6200050d858262000480565b8655506200057d565b601f1984166200052686620002c2565b60005b82811015620005505784890151825560018201915060208501945060208101905062000529565b868310156200057057848901516200056c601f89168262000460565b8355505b6001600288020188555050505b505050505050565b6137d780620005956000396000f3fe608060405234801561001057600080fd5b50600436106101375760003560e01c806370a08231116100b8578063b88d4fde1161007c578063b88d4fde1461035e578063c87b56dd1461037a578063d547741f146103aa578063e985e9c5146103c6578063eca81d42146103f6578063ed1c5be81461041257610137565b806370a08231146102a657806391d14854146102d657806395d89b4114610306578063a217fddf14610324578063a22cb4651461034257610137565b8063248a9ca3116100ff578063248a9ca3146101f25780632f2ff15d1461022257806336568abe1461023e57806342842e0e1461025a5780636352211e1461027657610137565b806301ffc9a71461013c57806306fdde031461016c578063081812fc1461018a578063095ea7b3146101ba57806323b872dd146101d6575b600080fd5b610156600480360381019061015191906122fd565b610442565b6040516101639190612345565b60405180910390f35b610174610454565b60405161018191906123f0565b60405180910390f35b6101a4600480360381019061019f9190612448565b6104e6565b6040516101b191906124b6565b60405180910390f35b6101d460048036038101906101cf91906124fd565b61052c565b005b6101f060048036038101906101eb919061253d565b610643565b005b61020c600480360381019061020791906125c6565b6106a3565b6040516102199190612602565b60405180910390f35b61023c6004803603810190610237919061261d565b6106c3565b005b6102586004803603810190610253919061261d565b6106e4565b005b610274600480360381019061026f919061253d565b610767565b005b610290600480360381019061028b9190612448565b610787565b60405161029d91906124b6565b60405180910390f35b6102c060048036038101906102bb919061265d565b61080d565b6040516102cd9190612699565b60405180910390f35b6102f060048036038101906102eb919061261d565b6108c4565b6040516102fd9190612345565b60405180910390f35b61030e61092f565b60405161031b91906123f0565b60405180910390f35b61032c6109c1565b6040516103399190612602565b60405180910390f35b61035c600480360381019061035791906126e0565b6109c8565b005b61037860048036038101906103739190612855565b6109de565b005b610394600480360381019061038f9190612448565b610a40565b6040516103a191906123f0565b60405180910390f35b6103c460048036038101906103bf919061261d565b610a52565b005b6103e060048036038101906103db91906128d8565b610a73565b6040516103ed9190612345565b60405180910390f35b610410600480360381019061040b91906129b9565b610b07565b005b61042c60048036038101906104279190612448565b610b5a565b60405161043991906123f0565b60405180910390f35b600061044d82610bff565b9050919050565b60606000805461046390612a73565b80601f016020809104026020016040519081016040528092919081815260200182805461048f90612a73565b80156104dc5780601f106104b1576101008083540402835291602001916104dc565b820191906000526020600020905b8154815290600101906020018083116104bf57829003601f168201915b5050505050905090565b60006104f182610c79565b6004600083815260200190815260200160002060009054906101000a900473ffffffffffffffffffffffffffffffffffffffff169050919050565b600061053782610787565b90508073ffffffffffffffffffffffffffffffffffffffff168373ffffffffffffffffffffffffffffffffffffffff16036105a7576040517f08c379a000000000000000000000000000000000000000000000000000000000815260040161059e90612b16565b60405180910390fd5b8073ffffffffffffffffffffffffffffffffffffffff166105c6610cc4565b73ffffffffffffffffffffffffffffffffffffffff1614806105f557506105f4816105ef610cc4565b610a73565b5b610634576040517f08c379a000000000000000000000000000000000000000000000000000000000815260040161062b90612ba8565b60405180910390fd5b61063e8383610ccc565b505050565b61065461064e610cc4565b82610d85565b610693576040517f08c379a000000000000000000000000000000000000000000000000000000000815260040161068a90612c3a565b60405180910390fd5b61069e838383610e1a565b505050565b600060076000838152602001908152602001600020600101549050919050565b6106cc826106a3565b6106d581611113565b6106df8383611127565b505050565b6106ec610cc4565b73ffffffffffffffffffffffffffffffffffffffff168173ffffffffffffffffffffffffffffffffffffffff1614610759576040517f08c379a000000000000000000000000000000000000000000000000000000000815260040161075090612ccc565b60405180910390fd5b6107638282611208565b5050565b610782838383604051806020016040528060008152506109de565b505050565b600080610793836112ea565b9050600073ffffffffffffffffffffffffffffffffffffffff168173ffffffffffffffffffffffffffffffffffffffff1603610804576040517f08c379a00000000000000000000000000000000000000000000000000000000081526004016107fb90612d38565b60405180910390fd5b80915050919050565b60008073ffffffffffffffffffffffffffffffffffffffff168273ffffffffffffffffffffffffffffffffffffffff160361087d576040517f08c379a000000000000000000000000000000000000000000000000000000000815260040161087490612dca565b60405180910390fd5b600360008373ffffffffffffffffffffffffffffffffffffffff1673ffffffffffffffffffffffffffffffffffffffff168152602001908152602001600020549050919050565b60006007600084815260200190815260200160002060000160008373ffffffffffffffffffffffffffffffffffffffff1673ffffffffffffffffffffffffffffffffffffffff16815260200190815260200160002060009054906101000a900460ff16905092915050565b60606001805461093e90612a73565b80601f016020809104026020016040519081016040528092919081815260200182805461096a90612a73565b80156109b75780601f1061098c576101008083540402835291602001916109b7565b820191906000526020600020905b81548152906001019060200180831161099a57829003601f168201915b5050505050905090565b6000801b81565b6109da6109d3610cc4565b8383611327565b5050565b6109ef6109e9610cc4565b83610d85565b610a2e576040517f08c379a0000000000000000000000000000000000000000000000000000000008152600401610a2590612c3a565b60405180910390fd5b610a3a84848484611493565b50505050565b6060610a4b826114ef565b9050919050565b610a5b826106a3565b610a6481611113565b610a6e8383611208565b505050565b6000600560008473ffffffffffffffffffffffffffffffffffffffff1673ffffffffffffffffffffffffffffffffffffffff16815260200190815260200160002060008373ffffffffffffffffffffffffffffffffffffffff1673ffffffffffffffffffffffffffffffffffffffff16815260200190815260200160002060009054906101000a900460ff16905092915050565b6000610b136008611601565b9050610b1f600861160f565b610b298482611625565b610b338184611643565b81600960008381526020019081526020016000209081610b539190612f96565b5050505050565b6060600960008381526020019081526020016000208054610b7a90612a73565b80601f0160208091040260200160405190810160405280929190818152602001828054610ba690612a73565b8015610bf35780601f10610bc857610100808354040283529160200191610bf3565b820191906000526020600020905b815481529060010190602001808311610bd657829003601f168201915b50505050509050919050565b60007f7965db0b000000000000000000000000000000000000000000000000000000007bffffffffffffffffffffffffffffffffffffffffffffffffffffffff1916827bffffffffffffffffffffffffffffffffffffffffffffffffffffffff19161480610c725750610c71826116e7565b5b9050919050565b610c8281611748565b610cc1576040517f08c379a0000000000000000000000000000000000000000000000000000000008152600401610cb890612d38565b60405180910390fd5b50565b600033905090565b816004600083815260200190815260200160002060006101000a81548173ffffffffffffffffffffffffffffffffffffffff021916908373ffffffffffffffffffffffffffffffffffffffff160217905550808273ffffffffffffffffffffffffffffffffffffffff16610d3f83610787565b73ffffffffffffffffffffffffffffffffffffffff167f8c5be1e5ebec7d5bd14f71427d1e84f3dd0314c0f7b2291e5b200ac8c7c3b92560405160405180910390a45050565b600080610d9183610787565b90508073ffffffffffffffffffffffffffffffffffffffff168473ffffffffffffffffffffffffffffffffffffffff161480610dd35750610dd28185610a73565b5b80610e1157508373ffffffffffffffffffffffffffffffffffffffff16610df9846104e6565b73ffffffffffffffffffffffffffffffffffffffff16145b91505092915050565b8273ffffffffffffffffffffffffffffffffffffffff16610e3a82610787565b73ffffffffffffffffffffffffffffffffffffffff1614610e90576040517f08c379a0000000000000000000000000000000000000000000000000000000008152600401610e87906130da565b60405180910390fd5b600073ffffffffffffffffffffffffffffffffffffffff168273ffffffffffffffffffffffffffffffffffffffff1603610eff576040517f08c379a0000000000000000000000000000000000000000000000000000000008152600401610ef69061316c565b60405180910390fd5b610f0c8383836001611789565b8273ffffffffffffffffffffffffffffffffffffffff16610f2c82610787565b73ffffffffffffffffffffffffffffffffffffffff1614610f82576040517f08c379a0000000000000000000000000000000000000000000000000000000008152600401610f79906130da565b60405180910390fd5b6004600082815260200190815260200160002060006101000a81549073ffffffffffffffffffffffffffffffffffffffff02191690556001600360008573ffffffffffffffffffffffffffffffffffffffff1673ffffffffffffffffffffffffffffffffffffffff168152602001908152602001600020600082825403925050819055506001600360008473ffffffffffffffffffffffffffffffffffffffff1673ffffffffffffffffffffffffffffffffffffffff16815260200190815260200160002060008282540192505081905550816002600083815260200190815260200160002060006101000a81548173ffffffffffffffffffffffffffffffffffffffff021916908373ffffffffffffffffffffffffffffffffffffffff160217905550808273ffffffffffffffffffffffffffffffffffffffff168473ffffffffffffffffffffffffffffffffffffffff167fddf252ad1be2c89b69c2b068fc378daa952ba7f163c4a11628f55a4df523b3ef60405160405180910390a461110e838383600161178f565b505050565b6111248161111f610cc4565b611795565b50565b61113182826108c4565b6112045760016007600084815260200190815260200160002060000160008373ffffffffffffffffffffffffffffffffffffffff1673ffffffffffffffffffffffffffffffffffffffff16815260200190815260200160002060006101000a81548160ff0219169083151502179055506111a9610cc4565b73ffffffffffffffffffffffffffffffffffffffff168173ffffffffffffffffffffffffffffffffffffffff16837f2f8788117e7eff1d82e926ec794901d17c78024a50270940304540a733656f0d60405160405180910390a45b5050565b61121282826108c4565b156112e65760006007600084815260200190815260200160002060000160008373ffffffffffffffffffffffffffffffffffffffff1673ffffffffffffffffffffffffffffffffffffffff16815260200190815260200160002060006101000a81548160ff02191690831515021790555061128b610cc4565b73ffffffffffffffffffffffffffffffffffffffff168173ffffffffffffffffffffffffffffffffffffffff16837ff6391f5c32d9c69d2a47ea670b442974b53935d1edc7fd64eb21e047a839171b60405160405180910390a45b5050565b60006002600083815260200190815260200160002060009054906101000a900473ffffffffffffffffffffffffffffffffffffffff169050919050565b8173ffffffffffffffffffffffffffffffffffffffff168373ffffffffffffffffffffffffffffffffffffffff1603611395576040517f08c379a000000000000000000000000000000000000000000000000000000000815260040161138c906131d8565b60405180910390fd5b80600560008573ffffffffffffffffffffffffffffffffffffffff1673ffffffffffffffffffffffffffffffffffffffff16815260200190815260200160002060008473ffffffffffffffffffffffffffffffffffffffff1673ffffffffffffffffffffffffffffffffffffffff16815260200190815260200160002060006101000a81548160ff0219169083151502179055508173ffffffffffffffffffffffffffffffffffffffff168373ffffffffffffffffffffffffffffffffffffffff167f17307eab39ab6107e8899845ad3d59bd9653f200f220920489ca2b5937696c31836040516114869190612345565b60405180910390a3505050565b61149e848484610e1a565b6114aa8484848461181a565b6114e9576040517f08c379a00000000000000000000000000000000000000000000000000000000081526004016114e09061326a565b60405180910390fd5b50505050565b60606114fa82610c79565b600060066000848152602001908152602001600020805461151a90612a73565b80601f016020809104026020016040519081016040528092919081815260200182805461154690612a73565b80156115935780601f1061156857610100808354040283529160200191611593565b820191906000526020600020905b81548152906001019060200180831161157657829003601f168201915b5050505050905060006115a46119a1565b905060008151036115b95781925050506115fc565b6000825111156115ee5780826040516020016115d69291906132c6565b604051602081830303815290604052925050506115fc565b6115f7846119b8565b925050505b919050565b600081600001549050919050565b6001816000016000828254019250508190555050565b61163f828260405180602001604052806000815250611a20565b5050565b61164c82611748565b61168b576040517f08c379a00000000000000000000000000000000000000000000000000000000081526004016116829061335c565b60405180910390fd5b806006600084815260200190815260200160002090816116ab9190612f96565b507ff8e1a15aba9398e019f0b49df1a4fde98ee17ae345cb5f6b5e2c27f5033e8ce7826040516116db9190612699565b60405180910390a15050565b6000634906490660e01b7bffffffffffffffffffffffffffffffffffffffffffffffffffffffff1916827bffffffffffffffffffffffffffffffffffffffffffffffffffffffff19161480611741575061174082611a7b565b5b9050919050565b60008073ffffffffffffffffffffffffffffffffffffffff1661176a836112ea565b73ffffffffffffffffffffffffffffffffffffffff1614159050919050565b50505050565b50505050565b61179f82826108c4565b611816576117ac81611b5d565b6117ba8360001c6020611b8a565b6040516020016117cb929190613414565b6040516020818303038152906040526040517f08c379a000000000000000000000000000000000000000000000000000000000815260040161180d91906123f0565b60405180910390fd5b5050565b600061183b8473ffffffffffffffffffffffffffffffffffffffff16611dc6565b15611994578373ffffffffffffffffffffffffffffffffffffffff1663150b7a02611864610cc4565b8786866040518563ffffffff1660e01b815260040161188694939291906134a3565b6020604051808303816000875af19250505080156118c257506040513d601f19601f820116820180604052508101906118bf9190613504565b60015b611944573d80600081146118f2576040519150601f19603f3d011682016040523d82523d6000602084013e6118f7565b606091505b50600081510361193c576040517f08c379a00000000000000000000000000000000000000000000000000000000081526004016119339061326a565b60405180910390fd5b805181602001fd5b63150b7a0260e01b7bffffffffffffffffffffffffffffffffffffffffffffffffffffffff1916817bffffffffffffffffffffffffffffffffffffffffffffffffffffffff191614915050611999565b600190505b949350505050565b606060405180602001604052806000815250905090565b60606119c382610c79565b60006119cd6119a1565b905060008151116119ed5760405180602001604052806000815250611a18565b806119f784611de9565b604051602001611a089291906132c6565b6040516020818303038152906040525b915050919050565b611a2a8383611eb7565b611a37600084848461181a565b611a76576040517f08c379a0000000000000000000000000000000000000000000000000000000008152600401611a6d9061326a565b60405180910390fd5b505050565b60007f80ac58cd000000000000000000000000000000000000000000000000000000007bffffffffffffffffffffffffffffffffffffffffffffffffffffffff1916827bffffffffffffffffffffffffffffffffffffffffffffffffffffffff19161480611b4657507f5b5e139f000000000000000000000000000000000000000000000000000000007bffffffffffffffffffffffffffffffffffffffffffffffffffffffff1916827bffffffffffffffffffffffffffffffffffffffffffffffffffffffff1916145b80611b565750611b55826120d4565b5b9050919050565b6060611b838273ffffffffffffffffffffffffffffffffffffffff16601460ff16611b8a565b9050919050565b606060006002836002611b9d9190613560565b611ba791906135a2565b67ffffffffffffffff811115611bc057611bbf61272a565b5b6040519080825280601f01601f191660200182016040528015611bf25781602001600182028036833780820191505090505b5090507f300000000000000000000000000000000000000000000000000000000000000081600081518110611c2a57611c296135d6565b5b60200101907effffffffffffffffffffffffffffffffffffffffffffffffffffffffffffff1916908160001a9053507f780000000000000000000000000000000000000000000000000000000000000081600181518110611c8e57611c8d6135d6565b5b60200101907effffffffffffffffffffffffffffffffffffffffffffffffffffffffffffff1916908160001a90535060006001846002611cce9190613560565b611cd891906135a2565b90505b6001811115611d78577f3031323334353637383961626364656600000000000000000000000000000000600f861660108110611d1a57611d196135d6565b5b1a60f81b828281518110611d3157611d306135d6565b5b60200101907effffffffffffffffffffffffffffffffffffffffffffffffffffffffffffff1916908160001a905350600485901c945080611d7190613605565b9050611cdb565b5060008414611dbc576040517f08c379a0000000000000000000000000000000000000000000000000000000008152600401611db39061367a565b60405180910390fd5b8091505092915050565b6000808273ffffffffffffffffffffffffffffffffffffffff163b119050919050565b606060006001611df88461213e565b01905060008167ffffffffffffffff811115611e1757611e1661272a565b5b6040519080825280601f01601f191660200182016040528015611e495781602001600182028036833780820191505090505b509050600082602001820190505b600115611eac578080600190039150507f3031323334353637383961626364656600000000000000000000000000000000600a86061a8153600a8581611ea057611e9f61369a565b5b04945060008503611e57575b819350505050919050565b600073ffffffffffffffffffffffffffffffffffffffff168273ffffffffffffffffffffffffffffffffffffffff1603611f26576040517f08c379a0000000000000000000000000000000000000000000000000000000008152600401611f1d90613715565b60405180910390fd5b611f2f81611748565b15611f6f576040517f08c379a0000000000000000000000000000000000000000000000000000000008152600401611f6690613781565b60405180910390fd5b611f7d600083836001611789565b611f8681611748565b15611fc6576040517f08c379a0000000000000000000000000000000000000000000000000000000008152600401611fbd90613781565b60405180910390fd5b6001600360008473ffffffffffffffffffffffffffffffffffffffff1673ffffffffffffffffffffffffffffffffffffffff16815260200190815260200160002060008282540192505081905550816002600083815260200190815260200160002060006101000a81548173ffffffffffffffffffffffffffffffffffffffff021916908373ffffffffffffffffffffffffffffffffffffffff160217905550808273ffffffffffffffffffffffffffffffffffffffff16600073ffffffffffffffffffffffffffffffffffffffff167fddf252ad1be2c89b69c2b068fc378daa952ba7f163c4a11628f55a4df523b3ef60405160405180910390a46120d060008383600161178f565b5050565b60007f01ffc9a7000000000000000000000000000000000000000000000000000000007bffffffffffffffffffffffffffffffffffffffffffffffffffffffff1916827bffffffffffffffffffffffffffffffffffffffffffffffffffffffff1916149050919050565b600080600090507a184f03e93ff9f4daa797ed6e38ed64bf6a1f010000000000000000831061219c577a184f03e93ff9f4daa797ed6e38ed64bf6a1f01000000000000000083816121925761219161369a565b5b0492506040810190505b6d04ee2d6d415b85acef810000000083106121d9576d04ee2d6d415b85acef810000000083816121cf576121ce61369a565b5b0492506020810190505b662386f26fc10000831061220857662386f26fc1000083816121fe576121fd61369a565b5b0492506010810190505b6305f5e1008310612231576305f5e10083816122275761222661369a565b5b0492506008810190505b612710831061225657612710838161224c5761224b61369a565b5b0492506004810190505b60648310612279576064838161226f5761226e61369a565b5b0492506002810190505b600a8310612288576001810190505b80915050919050565b6000604051905090565b600080fd5b600080fd5b60007fffffffff0000000000000000000000000000000000000000000000000000000082169050919050565b6122da816122a5565b81146122e557600080fd5b50565b6000813590506122f7816122d1565b92915050565b6000602082840312156123135761231261229b565b5b6000612321848285016122e8565b91505092915050565b60008115159050919050565b61233f8161232a565b82525050565b600060208201905061235a6000830184612336565b92915050565b600081519050919050565b600082825260208201905092915050565b60005b8381101561239a57808201518184015260208101905061237f565b60008484015250505050565b6000601f19601f8301169050919050565b60006123c282612360565b6123cc818561236b565b93506123dc81856020860161237c565b6123e5816123a6565b840191505092915050565b6000602082019050818103600083015261240a81846123b7565b905092915050565b6000819050919050565b61242581612412565b811461243057600080fd5b50565b6000813590506124428161241c565b92915050565b60006020828403121561245e5761245d61229b565b5b600061246c84828501612433565b91505092915050565b600073ffffffffffffffffffffffffffffffffffffffff82169050919050565b60006124a082612475565b9050919050565b6124b081612495565b82525050565b60006020820190506124cb60008301846124a7565b92915050565b6124da81612495565b81146124e557600080fd5b50565b6000813590506124f7816124d1565b92915050565b600080604083850312156125145761251361229b565b5b6000612522858286016124e8565b925050602061253385828601612433565b9150509250929050565b6000806000606084860312156125565761255561229b565b5b6000612564868287016124e8565b9350506020612575868287016124e8565b925050604061258686828701612433565b9150509250925092565b6000819050919050565b6125a381612590565b81146125ae57600080fd5b50565b6000813590506125c08161259a565b92915050565b6000602082840312156125dc576125db61229b565b5b60006125ea848285016125b1565b91505092915050565b6125fc81612590565b82525050565b600060208201905061261760008301846125f3565b92915050565b600080604083850312156126345761263361229b565b5b6000612642858286016125b1565b9250506020612653858286016124e8565b9150509250929050565b6000602082840312156126735761267261229b565b5b6000612681848285016124e8565b91505092915050565b61269381612412565b82525050565b60006020820190506126ae600083018461268a565b92915050565b6126bd8161232a565b81146126c857600080fd5b50565b6000813590506126da816126b4565b92915050565b600080604083850312156126f7576126f661229b565b5b6000612705858286016124e8565b9250506020612716858286016126cb565b9150509250929050565b600080fd5b600080fd5b7f4e487b7100000000000000000000000000000000000000000000000000000000600052604160045260246000fd5b612762826123a6565b810181811067ffffffffffffffff821117156127815761278061272a565b5b80604052505050565b6000612794612291565b90506127a08282612759565b919050565b600067ffffffffffffffff8211156127c0576127bf61272a565b5b6127c9826123a6565b9050602081019050919050565b82818337600083830152505050565b60006127f86127f3846127a5565b61278a565b90508281526020810184848401111561281457612813612725565b5b61281f8482856127d6565b509392505050565b600082601f83011261283c5761283b612720565b5b813561284c8482602086016127e5565b91505092915050565b6000806000806080858703121561286f5761286e61229b565b5b600061287d878288016124e8565b945050602061288e878288016124e8565b935050604061289f87828801612433565b925050606085013567ffffffffffffffff8111156128c0576128bf6122a0565b5b6128cc87828801612827565b91505092959194509250565b600080604083850312156128ef576128ee61229b565b5b60006128fd858286016124e8565b925050602061290e858286016124e8565b9150509250929050565b600067ffffffffffffffff8211156129335761293261272a565b5b61293c826123a6565b9050602081019050919050565b600061295c61295784612918565b61278a565b90508281526020810184848401111561297857612977612725565b5b6129838482856127d6565b509392505050565b600082601f8301126129a05761299f612720565b5b81356129b0848260208601612949565b91505092915050565b6000806000606084860312156129d2576129d161229b565b5b60006129e0868287016124e8565b935050602084013567ffffffffffffffff811115612a0157612a006122a0565b5b612a0d8682870161298b565b925050604084013567ffffffffffffffff811115612a2e57612a2d6122a0565b5b612a3a8682870161298b565b9150509250925092565b7f4e487b7100000000000000000000000000000000000000000000000000000000600052602260045260246000fd5b60006002820490506001821680612a8b57607f821691505b602082108103612a9e57612a9d612a44565b5b50919050565b7f4552433732313a20617070726f76616c20746f2063757272656e74206f776e6560008201527f7200000000000000000000000000000000000000000000000000000000000000602082015250565b6000612b0060218361236b565b9150612b0b82612aa4565b604082019050919050565b60006020820190508181036000830152612b2f81612af3565b9050919050565b7f4552433732313a20617070726f76652063616c6c6572206973206e6f7420746f60008201527f6b656e206f776e6572206f7220617070726f76656420666f7220616c6c000000602082015250565b6000612b92603d8361236b565b9150612b9d82612b36565b604082019050919050565b60006020820190508181036000830152612bc181612b85565b9050919050565b7f4552433732313a2063616c6c6572206973206e6f7420746f6b656e206f776e6560008201527f72206f7220617070726f76656400000000000000000000000000000000000000602082015250565b6000612c24602d8361236b565b9150612c2f82612bc8565b604082019050919050565b60006020820190508181036000830152612c5381612c17565b9050919050565b7f416363657373436f6e74726f6c3a2063616e206f6e6c792072656e6f756e636560008201527f20726f6c657320666f722073656c660000000000000000000000000000000000602082015250565b6000612cb6602f8361236b565b9150612cc182612c5a565b604082019050919050565b60006020820190508181036000830152612ce581612ca9565b9050919050565b7f4552433732313a20696e76616c696420746f6b656e2049440000000000000000600082015250565b6000612d2260188361236b565b9150612d2d82612cec565b602082019050919050565b60006020820190508181036000830152612d5181612d15565b9050919050565b7f4552433732313a2061646472657373207a65726f206973206e6f74206120766160008201527f6c6964206f776e65720000000000000000000000000000000000000000000000602082015250565b6000612db460298361236b565b9150612dbf82612d58565b604082019050919050565b60006020820190508181036000830152612de381612da7565b9050919050565b60008190508160005260206000209050919050565b60006020601f8301049050919050565b600082821b905092915050565b600060088302612e4c7fffffffffffffffffffffffffffffffffffffffffffffffffffffffffffffffff82612e0f565b612e568683612e0f565b95508019841693508086168417925050509392505050565b6000819050919050565b6000612e93612e8e612e8984612412565b612e6e565b612412565b9050919050565b6000819050919050565b612ead83612e78565b612ec1612eb982612e9a565b848454612e1c565b825550505050565b600090565b612ed6612ec9565b612ee1818484612ea4565b505050565b5b81811015612f0557612efa600082612ece565b600181019050612ee7565b5050565b601f821115612f4a57612f1b81612dea565b612f2484612dff565b81016020851015612f33578190505b612f47612f3f85612dff565b830182612ee6565b50505b505050565b600082821c905092915050565b6000612f6d60001984600802612f4f565b1980831691505092915050565b6000612f868383612f5c565b9150826002028217905092915050565b612f9f82612360565b67ffffffffffffffff811115612fb857612fb761272a565b5b612fc28254612a73565b612fcd828285612f09565b600060209050601f8311600181146130005760008415612fee578287015190505b612ff88582612f7a565b865550613060565b601f19841661300e86612dea565b60005b8281101561303657848901518255600182019150602085019450602081019050613011565b86831015613053578489015161304f601f891682612f5c565b8355505b6001600288020188555050505b505050505050565b7f4552433732313a207472616e736665722066726f6d20696e636f72726563742060008201527f6f776e6572000000000000000000000000000000000000000000000000000000602082015250565b60006130c460258361236b565b91506130cf82613068565b604082019050919050565b600060208201905081810360008301526130f3816130b7565b9050919050565b7f4552433732313a207472616e7366657220746f20746865207a65726f2061646460008201527f7265737300000000000000000000000000000000000000000000000000000000602082015250565b600061315660248361236b565b9150613161826130fa565b604082019050919050565b6000602082019050818103600083015261318581613149565b9050919050565b7f4552433732313a20617070726f766520746f2063616c6c657200000000000000600082015250565b60006131c260198361236b565b91506131cd8261318c565b602082019050919050565b600060208201905081810360008301526131f1816131b5565b9050919050565b7f4552433732313a207472616e7366657220746f206e6f6e20455243373231526560008201527f63656976657220696d706c656d656e7465720000000000000000000000000000602082015250565b600061325460328361236b565b915061325f826131f8565b604082019050919050565b6000602082019050818103600083015261328381613247565b9050919050565b600081905092915050565b60006132a082612360565b6132aa818561328a565b93506132ba81856020860161237c565b80840191505092915050565b60006132d28285613295565b91506132de8284613295565b91508190509392505050565b7f45524337323155524953746f726167653a2055524920736574206f66206e6f6e60008201527f6578697374656e7420746f6b656e000000000000000000000000000000000000602082015250565b6000613346602e8361236b565b9150613351826132ea565b604082019050919050565b6000602082019050818103600083015261337581613339565b9050919050565b7f416363657373436f6e74726f6c3a206163636f756e7420000000000000000000600082015250565b60006133b260178361328a565b91506133bd8261337c565b601782019050919050565b7f206973206d697373696e6720726f6c6520000000000000000000000000000000600082015250565b60006133fe60118361328a565b9150613409826133c8565b601182019050919050565b600061341f826133a5565b915061342b8285613295565b9150613436826133f1565b91506134428284613295565b91508190509392505050565b600081519050919050565b600082825260208201905092915050565b60006134758261344e565b61347f8185613459565b935061348f81856020860161237c565b613498816123a6565b840191505092915050565b60006080820190506134b860008301876124a7565b6134c560208301866124a7565b6134d2604083018561268a565b81810360608301526134e4818461346a565b905095945050505050565b6000815190506134fe816122d1565b92915050565b60006020828403121561351a5761351961229b565b5b6000613528848285016134ef565b91505092915050565b7f4e487b7100000000000000000000000000000000000000000000000000000000600052601160045260246000fd5b600061356b82612412565b915061357683612412565b925082820261358481612412565b9150828204841483151761359b5761359a613531565b5b5092915050565b60006135ad82612412565b91506135b883612412565b92508282019050808211156135d0576135cf613531565b5b92915050565b7f4e487b7100000000000000000000000000000000000000000000000000000000600052603260045260246000fd5b600061361082612412565b91506000820361362357613622613531565b5b600182039050919050565b7f537472696e67733a20686578206c656e67746820696e73756666696369656e74600082015250565b600061366460208361236b565b915061366f8261362e565b602082019050919050565b6000602082019050818103600083015261369381613657565b9050919050565b7f4e487b7100000000000000000000000000000000000000000000000000000000600052601260045260246000fd5b7f4552433732313a206d696e7420746f20746865207a65726f2061646472657373600082015250565b60006136ff60208361236b565b915061370a826136c9565b602082019050919050565b6000602082019050818103600083015261372e816136f2565b9050919050565b7f4552433732313a20746f6b656e20616c7265616479206d696e74656400000000600082015250565b600061376b601c8361236b565b915061377682613735565b602082019050919050565b6000602082019050818103600083015261379a8161375e565b905091905056fea26469706673582212208c1a2985a515dc5e0edcc5c27003fcf6c3f597fa29e8fe12dbf9a1237a2de57a64736f6c63430008130033",
  "linkReferences": {},
  "deployedLinkReferences": {}
}