{
  "_format": "hh-sol-artifact-1",
  "contractName": "EtherBoardV2",
  "sourceName": "contracts/EtherBoardV2.sol",
  "abi": [
    {
      "inputs": [],
      "stateMutability": "nonpayable",
      "type": "constructor"
    },
    {
      "anonymous": false,
      "inputs": [
        {
          "indexed": true,
          "internalType": "address",
          "name": "owner",
          "type": "address"
        },
        {
          "indexed": true,
          "internalType": "address",
          "name": "approved",
          "type": "address"
        },
        {
          "indexed": true,
          "internalType": "uint256",
          "name": "tokenId",
          "type": "uint256"
        }
      ],
      "name": "Approval",
      "type": "event"
    },
    {
      "anonymous": false,
      "inputs": [
        {
          "indexed": true,
          "internalType": "address",
          "name": "owner",
          "type": "address"
        },
        {
          "indexed": true,
          "internalType": "address",
          "name": "operator",
          "type": "address"
        },
        {
          "indexed": false,
          "internalType": "bool",
          "name": "approved",
          "type": "bool"
        }
      ],
      "name": "ApprovalForAll",
      "type": "event"
    },
    {
      "anonymous": false,
      "inputs": [
        {
          "indexed": false,
          "internalType": "uint256",
          "name": "_fromTokenId",
          "type": "uint256"
        },
        {
          "indexed": false,
          "internalType": "uint256",
          "name": "_toTokenId",
          "type": "uint256"
        }
      ],
      "name": "BatchMetadataUpdate",
      "type": "event"
    },
    {
      "anonymous": false,
      "inputs": [
        {
          "indexed": false,
          "internalType": "uint256",
          "name": "_tokenId",
          "type": "uint256"
        }
      ],
      "name": "MetadataUpdate",
      "type": "event"
    },
    {
      "anonymous": false,
      "inputs": [
        {
          "indexed": true,
          "internalType": "bytes32",
          "name": "role",
          "type": "bytes32"
        },
        {
          "indexed": true,
          "internalType": "bytes32",
          "name": "previousAdminRole",
          "type": "bytes32"
        },
        {
          "indexed": true,
          "internalType": "bytes32",
          "name": "newAdminRole",
          "type": "bytes32"
        }
      ],
      "name": "RoleAdminChanged",
      "type": "event"
    },
    {
      "anonymous": false,
      "inputs": [
        {
          "indexed": true,
          "internalType": "bytes32",
          "name": "role",
          "type": "bytes32"
        },
        {
          "indexed": true,
          "internalType": "address",
          "name": "account",
          "type": "address"
        },
        {
          "indexed": true,
          "internalType": "address",
          "name": "sender",
          "type": "address"
        }
      ],
      "name": "RoleGranted",
      "type": "event"
    },
    {
      "anonymous": false,
      "inputs": [
        {
          "indexed": true,
          "internalType": "bytes32",
          "name": "role",
          "type": "bytes32"
        },
        {
          "indexed": true,
          "internalType": "address",
          "name": "account",
          "type": "address"
        },
        {
          "indexed": true,
          "internalType": "address",
          "name": "sender",
          "type": "address"
        }
      ],
      "name": "RoleRevoked",
      "type": "event"
    },
    {
      "anonymous": false,
      "inputs": [
        {
          "indexed": true,
          "internalType": "address",
          "name": "from",
          "type": "address"
        },
        {
          "indexed": true,
          "internalType": "address",
          "name": "to",
          "type": "address"
        },
        {
          "indexed": true,
          "internalType": "uint256",
          "name": "tokenId",
          "type": "uint256"
        }
      ],
      "name": "Transfer",
      "type": "event"
    },
    {
      "inputs": [],
      "name": "DEFAULT_ADMIN_ROLE",
      "outputs": [
        {
          "internalType": "bytes32",
          "name": "",
          "type": "bytes32"
        }
      ],
      "stateMutability": "view",
      "type": "function"
    },
    {
      "inputs": [],
      "name": "MINTER_ROLE",
      "outputs": [
        {
          "internalType": "bytes32",
          "name": "",
          "type": "bytes32"
        }
      ],
      "stateMutability": "view",
      "type": "function"
    },
    {
      "inputs": [
        {
          "internalType": "address",
          "name": "to",
          "type": "address"
        },
        {
          "internalType": "uint256",
          "name": "tokenId",
          "type": "uint256"
        }
      ],
      "name": "approve",
      "outputs": [],
      "stateMutability": "nonpayable",
      "type": "function"
    },
    {
      "inputs": [
        {
          "internalType": "address",
          "name": "owner",
          "type": "address"
        }
      ],
      "name": "balanceOf",
      "outputs": [
        {
          "internalType": "uint256",
          "name": "",
          "type": "uint256"
        }
      ],
      "stateMutability": "view",
      "type": "function"
    },
    {
      "inputs": [
        {
          "internalType": "uint256",
          "name": "tokenId",
          "type": "uint256"
        }
      ],
      "name": "getApproved",
      "outputs": [
        {
          "internalType": "address",
          "name": "",
          "type": "address"
        }
      ],
      "stateMutability": "view",
      "type": "function"
    },
    {
      "inputs": [
        {
          "internalType": "uint256",
          "name": "tokenId",
          "type": "uint256"
        }
      ],
      "name": "getMessageByTokenId",
      "outputs": [
        {
          "internalType": "string",
          "name": "",
          "type": "string"
        }
      ],
      "stateMutability": "view",
      "type": "function"
    },
    {
      "inputs": [
        {
          "internalType": "bytes32",
          "name": "role",
          "type": "bytes32"
        }
      ],
      "name": "getRoleAdmin",
      "outputs": [
        {
          "internalType": "bytes32",
          "name": "",
          "type": "bytes32"
        }
      ],
      "stateMutability": "view",
      "type": "function"
    },
    {
      "inputs": [
        {
          "internalType": "bytes32",
          "name": "role",
          "type": "bytes32"
        },
        {
          "internalType": "address",
          "name": "account",
          "type": "address"
        }
      ],
      "name": "grantRole",
      "outputs": [],
      "stateMutability": "nonpayable",
      "type": "function"
    },
    {
      "inputs": [
        {
          "internalType": "bytes32",
          "name": "role",
          "type": "bytes32"
        },
        {
          "internalType": "address",
          "name": "account",
          "type": "address"
        }
      ],
      "name": "hasRole",
      "outputs": [
        {
          "internalType": "bool",
          "name": "",
          "type": "bool"
        }
      ],
      "stateMutability": "view",
      "type": "function"
    },
    {
      "inputs": [
        {
          "internalType": "address",
          "name": "owner",
          "type": "address"
        },
        {
          "internalType": "address",
          "name": "operator",
          "type": "address"
        }
      ],
      "name": "isApprovedForAll",
      "outputs": [
        {
          "internalType": "bool",
          "name": "",
          "type": "bool"
        }
      ],
      "stateMutability": "view",
      "type": "function"
    },
    {
      "inputs": [],
      "name": "name",
      "outputs": [
        {
          "internalType": "string",
          "name": "",
          "type": "string"
        }
      ],
      "stateMutability": "view",
      "type": "function"
    },
    {
      "inputs": [
        {
          "internalType": "uint256",
          "name": "tokenId",
          "type": "uint256"
        }
      ],
      "name": "ownerOf",
      "outputs": [
        {
          "internalType": "address",
          "name": "",
          "type": "address"
        }
      ],
      "stateMutability": "view",
      "type": "function"
    },
    {
      "inputs": [
        {
          "internalType": "bytes32",
          "name": "role",
          "type": "bytes32"
        },
        {
          "internalType": "address",
          "name": "account",
          "type": "address"
        }
      ],
      "name": "renounceRole",
      "outputs": [],
      "stateMutability": "nonpayable",
      "type": "function"
    },
    {
      "inputs": [
        {
          "internalType": "bytes32",
          "name": "role",
          "type": "bytes32"
        },
        {
          "internalType": "address",
          "name": "account",
          "type": "address"
        }
      ],
      "name": "revokeRole",
      "outputs": [],
      "stateMutability": "nonpayable",
      "type": "function"
    },
    {
      "inputs": [
        {
          "internalType": "address",
          "name": "to",
          "type": "address"
        },
        {
          "internalType": "string",
          "name": "uri",
          "type": "string"
        },
        {
          "internalType": "string",
          "name": "message",
          "type": "string"
        }
      ],
      "name": "safeMint",
      "outputs": [],
      "stateMutability": "nonpayable",
      "type": "function"
    },
    {
      "inputs": [
        {
          "internalType": "address",
          "name": "from",
          "type": "address"
        },
        {
          "internalType": "address",
          "name": "to",
          "type": "address"
        },
        {
          "internalType": "uint256",
          "name": "tokenId",
          "type": "uint256"
        }
      ],
      "name": "safeTransferFrom",
      "outputs": [],
      "stateMutability": "nonpayable",
      "type": "function"
    },
    {
      "inputs": [
        {
          "internalType": "address",
          "name": "from",
          "type": "address"
        },
        {
          "internalType": "address",
          "name": "to",
          "type": "address"
        },
        {
          "internalType": "uint256",
          "name": "tokenId",
          "type": "uint256"
        },
        {
          "internalType": "bytes",
          "name": "data",
          "type": "bytes"
        }
      ],
      "name": "safeTransferFrom",
      "outputs": [],
      "stateMutability": "nonpayable",
      "type": "function"
    },
    {
      "inputs": [
        {
          "internalType": "address",
          "name": "operator",
          "type": "address"
        },
        {
          "internalType": "bool",
          "name": "approved",
          "type": "bool"
        }
      ],
      "name": "setApprovalForAll",
      "outputs": [],
      "stateMutability": "nonpayable",
      "type": "function"
    },
    {
      "inputs": [
        {
          "internalType": "bytes4",
          "name": "interfaceId",
          "type": "bytes4"
        }
      ],
      "name": "supportsInterface",
      "outputs": [
        {
          "internalType": "bool",
          "name": "",
          "type": "bool"
        }
      ],
      "stateMutability": "view",
      "type": "function"
    },
    {
      "inputs": [],
      "name": "symbol",
      "outputs": [
        {
          "internalType": "string",
          "name": "",
          "type": "string"
        }
      ],
      "stateMutability": "view",
      "type": "function"
    },
    {
      "inputs": [
        {
          "internalType": "uint256",
          "name": "index",
          "type": "uint256"
        }
      ],
      "name": "tokenByIndex",
      "outputs": [
        {
          "internalType": "uint256",
          "name": "",
          "type": "uint256"
        }
      ],
      "stateMutability": "view",
      "type": "function"
    },
    {
      "inputs": [
        {
          "internalType": "address",
          "name": "owner",
          "type": "address"
        },
        {
          "internalType": "uint256",
          "name": "index",
          "type": "uint256"
        }
      ],
      "name": "tokenOfOwnerByIndex",
      "outputs": [
        {
          "internalType": "uint256",
          "name": "",
          "type": "uint256"
        }
      ],
      "stateMutability": "view",
      "type": "function"
    },
    {
      "inputs": [
        {
          "internalType": "uint256",
          "name": "tokenId",
          "type": "uint256"
        }
      ],
      "name": "tokenURI",
      "outputs": [
        {
          "internalType": "string",
          "name": "",
          "type": "string"
        }
      ],
      "stateMutability": "view",
      "type": "function"
    },
    {
      "inputs": [],
      "name": "totalSupply",
      "outputs": [
        {
          "internalType": "uint256",
          "name": "",
          "type": "uint256"
        }
      ],
      "stateMutability": "view",
      "type": "function"
    },
    {
      "inputs": [
        {
          "internalType": "address",
          "name": "from",
          "type": "address"
        },
        {
          "internalType": "address",
          "name": "to",
          "type": "address"
        },
        {
          "internalType": "uint256",
          "name": "tokenId",
          "type": "uint256"
        }
      ],
      "name": "transferFrom",
      "outputs": [],
      "stateMutability": "nonpayable",
      "type": "function"
    }
  ],
  "bytecode": "0x60806040523480156200001157600080fd5b506040518060400160405280600c81526020017f4574686572426f617264563200000000000000000000000000000000000000008152506040518060400160405280600481526020017f455442320000000000000000000000000000000000000000000000000000000081525081600090816200008f91906200049e565b508060019081620000a191906200049e565b505050620000b96000801b33620000bf60201b60201c565b62000585565b620000d18282620001b160201b60201c565b620001ad576001600b600084815260200190815260200160002060000160008373ffffffffffffffffffffffffffffffffffffffff1673ffffffffffffffffffffffffffffffffffffffff16815260200190815260200160002060006101000a81548160ff021916908315150217905550620001526200021c60201b60201c565b73ffffffffffffffffffffffffffffffffffffffff168173ffffffffffffffffffffffffffffffffffffffff16837f2f8788117e7eff1d82e926ec794901d17c78024a50270940304540a733656f0d60405160405180910390a45b5050565b6000600b600084815260200190815260200160002060000160008373ffffffffffffffffffffffffffffffffffffffff1673ffffffffffffffffffffffffffffffffffffffff16815260200190815260200160002060009054906101000a900460ff16905092915050565b600033905090565b600081519050919050565b7f4e487b7100000000000000000000000000000000000000000000000000000000600052604160045260246000fd5b7f4e487b7100000000000000000000000000000000000000000000000000000000600052602260045260246000fd5b60006002820490506001821680620002a657607f821691505b602082108103620002bc57620002bb6200025e565b5b50919050565b60008190508160005260206000209050919050565b60006020601f8301049050919050565b600082821b905092915050565b600060088302620003267fffffffffffffffffffffffffffffffffffffffffffffffffffffffffffffffff82620002e7565b620003328683620002e7565b95508019841693508086168417925050509392505050565b6000819050919050565b6000819050919050565b60006200037f6200037962000373846200034a565b62000354565b6200034a565b9050919050565b6000819050919050565b6200039b836200035e565b620003b3620003aa8262000386565b848454620002f4565b825550505050565b600090565b620003ca620003bb565b620003d781848462000390565b505050565b5b81811015620003ff57620003f3600082620003c0565b600181019050620003dd565b5050565b601f8211156200044e576200041881620002c2565b6200042384620002d7565b8101602085101562000433578190505b6200044b6200044285620002d7565b830182620003dc565b50505b505050565b600082821c905092915050565b6000620004736000198460080262000453565b1980831691505092915050565b60006200048e838362000460565b9150826002028217905092915050565b620004a98262000224565b67ffffffffffffffff811115620004c557620004c46200022f565b5b620004d182546200028d565b620004de82828562000403565b600060209050601f83116001811462000516576000841562000501578287015190505b6200050d858262000480565b8655506200057d565b601f1984166200052686620002c2565b60005b82811015620005505784890151825560018201915060208501945060208101905062000529565b868310156200057057848901516200056c601f89168262000460565b8355505b6001600288020188555050505b505050505050565b6140ff80620005956000396000f3fe608060405234801561001057600080fd5b50600436106101735760003560e01c80636352211e116100de578063b88d4fde11610097578063d547741f11610071578063d547741f14610482578063e985e9c51461049e578063eca81d42146104ce578063ed1c5be8146104ea57610173565b8063b88d4fde14610418578063c87b56dd14610434578063d53913931461046457610173565b80636352211e1461033057806370a082311461036057806391d148541461039057806395d89b41146103c0578063a217fddf146103de578063a22cb465146103fc57610173565b8063248a9ca311610130578063248a9ca31461024c5780632f2ff15d1461027c5780632f745c591461029857806336568abe146102c857806342842e0e146102e45780634f6ccce71461030057610173565b806301ffc9a71461017857806306fdde03146101a8578063081812fc146101c6578063095ea7b3146101f657806318160ddd1461021257806323b872dd14610230575b600080fd5b610192600480360381019061018d9190612a0c565b61051a565b60405161019f9190612a54565b60405180910390f35b6101b061052c565b6040516101bd9190612aff565b60405180910390f35b6101e060048036038101906101db9190612b57565b6105be565b6040516101ed9190612bc5565b60405180910390f35b610210600480360381019061020b9190612c0c565b610604565b005b61021a61071b565b6040516102279190612c5b565b60405180910390f35b61024a60048036038101906102459190612c76565b610728565b005b61026660048036038101906102619190612cff565b610788565b6040516102739190612d3b565b60405180910390f35b61029660048036038101906102919190612d56565b6107a8565b005b6102b260048036038101906102ad9190612c0c565b6107c9565b6040516102bf9190612c5b565b60405180910390f35b6102e260048036038101906102dd9190612d56565b61086e565b005b6102fe60048036038101906102f99190612c76565b6108f1565b005b61031a60048036038101906103159190612b57565b610911565b6040516103279190612c5b565b60405180910390f35b61034a60048036038101906103459190612b57565b610982565b6040516103579190612bc5565b60405180910390f35b61037a60048036038101906103759190612d96565b610a08565b6040516103879190612c5b565b60405180910390f35b6103aa60048036038101906103a59190612d56565b610abf565b6040516103b79190612a54565b60405180910390f35b6103c8610b2a565b6040516103d59190612aff565b60405180910390f35b6103e6610bbc565b6040516103f39190612d3b565b60405180910390f35b61041660048036038101906104119190612def565b610bc3565b005b610432600480360381019061042d9190612f64565b610bd9565b005b61044e60048036038101906104499190612b57565b610c3b565b60405161045b9190612aff565b60405180910390f35b61046c610c4d565b6040516104799190612d3b565b60405180910390f35b61049c60048036038101906104979190612d56565b610c71565b005b6104b860048036038101906104b39190612fe7565b610c92565b6040516104c59190612a54565b60405180910390f35b6104e860048036038101906104e391906130c8565b610d26565b005b61050460048036038101906104ff9190612b57565b610d79565b6040516105119190612aff565b60405180910390f35b600061052582610e1e565b9050919050565b60606000805461053b90613182565b80601f016020809104026020016040519081016040528092919081815260200182805461056790613182565b80156105b45780601f10610589576101008083540402835291602001916105b4565b820191906000526020600020905b81548152906001019060200180831161059757829003601f168201915b5050505050905090565b60006105c982610e98565b6004600083815260200190815260200160002060009054906101000a900473ffffffffffffffffffffffffffffffffffffffff169050919050565b600061060f82610982565b90508073ffffffffffffffffffffffffffffffffffffffff168373ffffffffffffffffffffffffffffffffffffffff160361067f576040517f08c379a000000000000000000000000000000000000000000000000000000000815260040161067690613225565b60405180910390fd5b8073ffffffffffffffffffffffffffffffffffffffff1661069e610ee3565b73ffffffffffffffffffffffffffffffffffffffff1614806106cd57506106cc816106c7610ee3565b610c92565b5b61070c576040517f08c379a0000000000000000000000000000000000000000000000000000000008152600401610703906132b7565b60405180910390fd5b6107168383610eeb565b505050565b6000600880549050905090565b610739610733610ee3565b82610fa4565b610778576040517f08c379a000000000000000000000000000000000000000000000000000000000815260040161076f90613349565b60405180910390fd5b610783838383611039565b505050565b6000600b6000838152602001908152602001600020600101549050919050565b6107b182610788565b6107ba81611332565b6107c48383611346565b505050565b60006107d483610a08565b8210610815576040517f08c379a000000000000000000000000000000000000000000000000000000000815260040161080c906133db565b60405180910390fd5b600660008473ffffffffffffffffffffffffffffffffffffffff1673ffffffffffffffffffffffffffffffffffffffff168152602001908152602001600020600083815260200190815260200160002054905092915050565b610876610ee3565b73ffffffffffffffffffffffffffffffffffffffff168173ffffffffffffffffffffffffffffffffffffffff16146108e3576040517f08c379a00000000000000000000000000000000000000000000000000000000081526004016108da9061346d565b60405180910390fd5b6108ed8282611427565b5050565b61090c83838360405180602001604052806000815250610bd9565b505050565b600061091b61071b565b821061095c576040517f08c379a0000000000000000000000000000000000000000000000000000000008152600401610953906134ff565b60405180910390fd5b600882815481106109705761096f61351f565b5b90600052602060002001549050919050565b60008061098e83611509565b9050600073ffffffffffffffffffffffffffffffffffffffff168173ffffffffffffffffffffffffffffffffffffffff16036109ff576040517f08c379a00000000000000000000000000000000000000000000000000000000081526004016109f69061359a565b60405180910390fd5b80915050919050565b60008073ffffffffffffffffffffffffffffffffffffffff168273ffffffffffffffffffffffffffffffffffffffff1603610a78576040517f08c379a0000000000000000000000000000000000000000000000000000000008152600401610a6f9061362c565b60405180910390fd5b600360008373ffffffffffffffffffffffffffffffffffffffff1673ffffffffffffffffffffffffffffffffffffffff168152602001908152602001600020549050919050565b6000600b600084815260200190815260200160002060000160008373ffffffffffffffffffffffffffffffffffffffff1673ffffffffffffffffffffffffffffffffffffffff16815260200190815260200160002060009054906101000a900460ff16905092915050565b606060018054610b3990613182565b80601f0160208091040260200160405190810160405280929190818152602001828054610b6590613182565b8015610bb25780601f10610b8757610100808354040283529160200191610bb2565b820191906000526020600020905b815481529060010190602001808311610b9557829003601f168201915b5050505050905090565b6000801b81565b610bd5610bce610ee3565b8383611546565b5050565b610bea610be4610ee3565b83610fa4565b610c29576040517f08c379a0000000000000000000000000000000000000000000000000000000008152600401610c2090613349565b60405180910390fd5b610c35848484846116b2565b50505050565b6060610c468261170e565b9050919050565b7f9f2df0fed2c77648de5860a4cc508cd0818c85b8b8a1ab4ceeef8d981c8956a681565b610c7a82610788565b610c8381611332565b610c8d8383611427565b505050565b6000600560008473ffffffffffffffffffffffffffffffffffffffff1673ffffffffffffffffffffffffffffffffffffffff16815260200190815260200160002060008373ffffffffffffffffffffffffffffffffffffffff1673ffffffffffffffffffffffffffffffffffffffff16815260200190815260200160002060009054906101000a900460ff16905092915050565b6000610d32600c611820565b9050610d3e600c61182e565b610d488482611844565b610d528184611862565b81600d60008381526020019081526020016000209081610d7291906137f8565b5050505050565b6060600d60008381526020019081526020016000208054610d9990613182565b80601f0160208091040260200160405190810160405280929190818152602001828054610dc590613182565b8015610e125780601f10610de757610100808354040283529160200191610e12565b820191906000526020600020905b815481529060010190602001808311610df557829003601f168201915b50505050509050919050565b60007f7965db0b000000000000000000000000000000000000000000000000000000007bffffffffffffffffffffffffffffffffffffffffffffffffffffffff1916827bffffffffffffffffffffffffffffffffffffffffffffffffffffffff19161480610e915750610e9082611906565b5b9050919050565b610ea181611967565b610ee0576040517f08c379a0000000000000000000000000000000000000000000000000000000008152600401610ed79061359a565b60405180910390fd5b50565b600033905090565b816004600083815260200190815260200160002060006101000a81548173ffffffffffffffffffffffffffffffffffffffff021916908373ffffffffffffffffffffffffffffffffffffffff160217905550808273ffffffffffffffffffffffffffffffffffffffff16610f5e83610982565b73ffffffffffffffffffffffffffffffffffffffff167f8c5be1e5ebec7d5bd14f71427d1e84f3dd0314c0f7b2291e5b200ac8c7c3b92560405160405180910390a45050565b600080610fb083610982565b90508073ffffffffffffffffffffffffffffffffffffffff168473ffffffffffffffffffffffffffffffffffffffff161480610ff25750610ff18185610c92565b5b8061103057508373ffffffffffffffffffffffffffffffffffffffff16611018846105be565b73ffffffffffffffffffffffffffffffffffffffff16145b91505092915050565b8273ffffffffffffffffffffffffffffffffffffffff1661105982610982565b73ffffffffffffffffffffffffffffffffffffffff16146110af576040517f08c379a00000000000000000000000000000000000000000000000000000000081526004016110a69061393c565b60405180910390fd5b600073ffffffffffffffffffffffffffffffffffffffff168273ffffffffffffffffffffffffffffffffffffffff160361111e576040517f08c379a0000000000000000000000000000000000000000000000000000000008152600401611115906139ce565b60405180910390fd5b61112b83838360016119a8565b8273ffffffffffffffffffffffffffffffffffffffff1661114b82610982565b73ffffffffffffffffffffffffffffffffffffffff16146111a1576040517f08c379a00000000000000000000000000000000000000000000000000000000081526004016111989061393c565b60405180910390fd5b6004600082815260200190815260200160002060006101000a81549073ffffffffffffffffffffffffffffffffffffffff02191690556001600360008573ffffffffffffffffffffffffffffffffffffffff1673ffffffffffffffffffffffffffffffffffffffff168152602001908152602001600020600082825403925050819055506001600360008473ffffffffffffffffffffffffffffffffffffffff1673ffffffffffffffffffffffffffffffffffffffff16815260200190815260200160002060008282540192505081905550816002600083815260200190815260200160002060006101000a81548173ffffffffffffffffffffffffffffffffffffffff021916908373ffffffffffffffffffffffffffffffffffffffff160217905550808273ffffffffffffffffffffffffffffffffffffffff168473ffffffffffffffffffffffffffffffffffffffff167fddf252ad1be2c89b69c2b068fc378daa952ba7f163c4a11628f55a4df523b3ef60405160405180910390a461132d83838360016119ba565b505050565b6113438161133e610ee3565b6119c0565b50565b6113508282610abf565b611423576001600b600084815260200190815260200160002060000160008373ffffffffffffffffffffffffffffffffffffffff1673ffffffffffffffffffffffffffffffffffffffff16815260200190815260200160002060006101000a81548160ff0219169083151502179055506113c8610ee3565b73ffffffffffffffffffffffffffffffffffffffff168173ffffffffffffffffffffffffffffffffffffffff16837f2f8788117e7eff1d82e926ec794901d17c78024a50270940304540a733656f0d60405160405180910390a45b5050565b6114318282610abf565b15611505576000600b600084815260200190815260200160002060000160008373ffffffffffffffffffffffffffffffffffffffff1673ffffffffffffffffffffffffffffffffffffffff16815260200190815260200160002060006101000a81548160ff0219169083151502179055506114aa610ee3565b73ffffffffffffffffffffffffffffffffffffffff168173ffffffffffffffffffffffffffffffffffffffff16837ff6391f5c32d9c69d2a47ea670b442974b53935d1edc7fd64eb21e047a839171b60405160405180910390a45b5050565b60006002600083815260200190815260200160002060009054906101000a900473ffffffffffffffffffffffffffffffffffffffff169050919050565b8173ffffffffffffffffffffffffffffffffffffffff168373ffffffffffffffffffffffffffffffffffffffff16036115b4576040517f08c379a00000000000000000000000000000000000000000000000000000000081526004016115ab90613a3a565b60405180910390fd5b80600560008573ffffffffffffffffffffffffffffffffffffffff1673ffffffffffffffffffffffffffffffffffffffff16815260200190815260200160002060008473ffffffffffffffffffffffffffffffffffffffff1673ffffffffffffffffffffffffffffffffffffffff16815260200190815260200160002060006101000a81548160ff0219169083151502179055508173ffffffffffffffffffffffffffffffffffffffff168373ffffffffffffffffffffffffffffffffffffffff167f17307eab39ab6107e8899845ad3d59bd9653f200f220920489ca2b5937696c31836040516116a59190612a54565b60405180910390a3505050565b6116bd848484611039565b6116c984848484611a45565b611708576040517f08c379a00000000000000000000000000000000000000000000000000000000081526004016116ff90613acc565b60405180910390fd5b50505050565b606061171982610e98565b6000600a6000848152602001908152602001600020805461173990613182565b80601f016020809104026020016040519081016040528092919081815260200182805461176590613182565b80156117b25780601f10611787576101008083540402835291602001916117b2565b820191906000526020600020905b81548152906001019060200180831161179557829003601f168201915b5050505050905060006117c3611bcc565b905060008151036117d857819250505061181b565b60008251111561180d5780826040516020016117f5929190613b28565b6040516020818303038152906040529250505061181b565b61181684611be3565b925050505b919050565b600081600001549050919050565b6001816000016000828254019250508190555050565b61185e828260405180602001604052806000815250611c4b565b5050565b61186b82611967565b6118aa576040517f08c379a00000000000000000000000000000000000000000000000000000000081526004016118a190613bbe565b60405180910390fd5b80600a600084815260200190815260200160002090816118ca91906137f8565b507ff8e1a15aba9398e019f0b49df1a4fde98ee17ae345cb5f6b5e2c27f5033e8ce7826040516118fa9190612c5b565b60405180910390a15050565b6000634906490660e01b7bffffffffffffffffffffffffffffffffffffffffffffffffffffffff1916827bffffffffffffffffffffffffffffffffffffffffffffffffffffffff19161480611960575061195f82611ca6565b5b9050919050565b60008073ffffffffffffffffffffffffffffffffffffffff1661198983611509565b73ffffffffffffffffffffffffffffffffffffffff1614159050919050565b6119b484848484611d20565b50505050565b50505050565b6119ca8282610abf565b611a41576119d781611e7e565b6119e58360001c6020611eab565b6040516020016119f6929190613c76565b6040516020818303038152906040526040517f08c379a0000000000000000000000000000000000000000000000000000000008152600401611a389190612aff565b60405180910390fd5b5050565b6000611a668473ffffffffffffffffffffffffffffffffffffffff166120e7565b15611bbf578373ffffffffffffffffffffffffffffffffffffffff1663150b7a02611a8f610ee3565b8786866040518563ffffffff1660e01b8152600401611ab19493929190613d05565b6020604051808303816000875af1925050508015611aed57506040513d601f19601f82011682018060405250810190611aea9190613d66565b60015b611b6f573d8060008114611b1d576040519150601f19603f3d011682016040523d82523d6000602084013e611b22565b606091505b506000815103611b67576040517f08c379a0000000000000000000000000000000000000000000000000000000008152600401611b5e90613acc565b60405180910390fd5b805181602001fd5b63150b7a0260e01b7bffffffffffffffffffffffffffffffffffffffffffffffffffffffff1916817bffffffffffffffffffffffffffffffffffffffffffffffffffffffff191614915050611bc4565b600190505b949350505050565b606060405180602001604052806000815250905090565b6060611bee82610e98565b6000611bf8611bcc565b90506000815111611c185760405180602001604052806000815250611c43565b80611c228461210a565b604051602001611c33929190613b28565b6040516020818303038152906040525b915050919050565b611c5583836121d8565b611c626000848484611a45565b611ca1576040517f08c379a0000000000000000000000000000000000000000000000000000000008152600401611c9890613acc565b60405180910390fd5b505050565b60007f780e9d63000000000000000000000000000000000000000000000000000000007bffffffffffffffffffffffffffffffffffffffffffffffffffffffff1916827bffffffffffffffffffffffffffffffffffffffffffffffffffffffff19161480611d195750611d18826123f5565b5b9050919050565b611d2c848484846124d7565b6001811115611d70576040517f08c379a0000000000000000000000000000000000000000000000000000000008152600401611d6790613e05565b60405180910390fd5b6000829050600073ffffffffffffffffffffffffffffffffffffffff168573ffffffffffffffffffffffffffffffffffffffff1603611db757611db2816124dd565b611df6565b8373ffffffffffffffffffffffffffffffffffffffff168573ffffffffffffffffffffffffffffffffffffffff1614611df557611df48582612526565b5b5b600073ffffffffffffffffffffffffffffffffffffffff168473ffffffffffffffffffffffffffffffffffffffff1603611e3857611e3381612693565b611e77565b8473ffffffffffffffffffffffffffffffffffffffff168473ffffffffffffffffffffffffffffffffffffffff1614611e7657611e758482612764565b5b5b5050505050565b6060611ea48273ffffffffffffffffffffffffffffffffffffffff16601460ff16611eab565b9050919050565b606060006002836002611ebe9190613e54565b611ec89190613e96565b67ffffffffffffffff811115611ee157611ee0612e39565b5b6040519080825280601f01601f191660200182016040528015611f135781602001600182028036833780820191505090505b5090507f300000000000000000000000000000000000000000000000000000000000000081600081518110611f4b57611f4a61351f565b5b60200101907effffffffffffffffffffffffffffffffffffffffffffffffffffffffffffff1916908160001a9053507f780000000000000000000000000000000000000000000000000000000000000081600181518110611faf57611fae61351f565b5b60200101907effffffffffffffffffffffffffffffffffffffffffffffffffffffffffffff1916908160001a90535060006001846002611fef9190613e54565b611ff99190613e96565b90505b6001811115612099577f3031323334353637383961626364656600000000000000000000000000000000600f86166010811061203b5761203a61351f565b5b1a60f81b8282815181106120525761205161351f565b5b60200101907effffffffffffffffffffffffffffffffffffffffffffffffffffffffffffff1916908160001a905350600485901c94508061209290613eca565b9050611ffc565b50600084146120dd576040517f08c379a00000000000000000000000000000000000000000000000000000000081526004016120d490613f3f565b60405180910390fd5b8091505092915050565b6000808273ffffffffffffffffffffffffffffffffffffffff163b119050919050565b606060006001612119846127e3565b01905060008167ffffffffffffffff81111561213857612137612e39565b5b6040519080825280601f01601f19166020018201604052801561216a5781602001600182028036833780820191505090505b509050600082602001820190505b6001156121cd578080600190039150507f3031323334353637383961626364656600000000000000000000000000000000600a86061a8153600a85816121c1576121c0613f5f565b5b04945060008503612178575b819350505050919050565b600073ffffffffffffffffffffffffffffffffffffffff168273ffffffffffffffffffffffffffffffffffffffff1603612247576040517f08c379a000000000000000000000000000000000000000000000000000000000815260040161223e90613fda565b60405180910390fd5b61225081611967565b15612290576040517f08c379a000000000000000000000000000000000000000000000000000000000815260040161228790614046565b60405180910390fd5b61229e6000838360016119a8565b6122a781611967565b156122e7576040517f08c379a00000000000000000000000000000000000000000000000000000000081526004016122de90614046565b60405180910390fd5b6001600360008473ffffffffffffffffffffffffffffffffffffffff1673ffffffffffffffffffffffffffffffffffffffff16815260200190815260200160002060008282540192505081905550816002600083815260200190815260200160002060006101000a81548173ffffffffffffffffffffffffffffffffffffffff021916908373ffffffffffffffffffffffffffffffffffffffff160217905550808273ffffffffffffffffffffffffffffffffffffffff16600073ffffffffffffffffffffffffffffffffffffffff167fddf252ad1be2c89b69c2b068fc378daa952ba7f163c4a11628f55a4df523b3ef60405160405180910390a46123f16000838360016119ba565b5050565b60007f80ac58cd000000000000000000000000000000000000000000000000000000007bffffffffffffffffffffffffffffffffffffffffffffffffffffffff1916827bffffffffffffffffffffffffffffffffffffffffffffffffffffffff191614806124c057507f5b5e139f000000000000000000000000000000000000000000000000000000007bffffffffffffffffffffffffffffffffffffffffffffffffffffffff1916827bffffffffffffffffffffffffffffffffffffffffffffffffffffffff1916145b806124d057506124cf82612936565b5b9050919050565b50505050565b6008805490506009600083815260200190815260200160002081905550600881908060018154018082558091505060019003906000526020600020016000909190919091505550565b6000600161253384610a08565b61253d9190614066565b9050600060076000848152602001908152602001600020549050818114612622576000600660008673ffffffffffffffffffffffffffffffffffffffff1673ffffffffffffffffffffffffffffffffffffffff168152602001908152602001600020600084815260200190815260200160002054905080600660008773ffffffffffffffffffffffffffffffffffffffff1673ffffffffffffffffffffffffffffffffffffffff168152602001908152602001600020600084815260200190815260200160002081905550816007600083815260200190815260200160002081905550505b6007600084815260200190815260200160002060009055600660008573ffffffffffffffffffffffffffffffffffffffff1673ffffffffffffffffffffffffffffffffffffffff16815260200190815260200160002060008381526020019081526020016000206000905550505050565b600060016008805490506126a79190614066565b90506000600960008481526020019081526020016000205490506000600883815481106126d7576126d661351f565b5b9060005260206000200154905080600883815481106126f9576126f861351f565b5b9060005260206000200181905550816009600083815260200190815260200160002081905550600960008581526020019081526020016000206000905560088054806127485761274761409a565b5b6001900381819060005260206000200160009055905550505050565b600061276f83610a08565b905081600660008573ffffffffffffffffffffffffffffffffffffffff1673ffffffffffffffffffffffffffffffffffffffff168152602001908152602001600020600083815260200190815260200160002081905550806007600084815260200190815260200160002081905550505050565b600080600090507a184f03e93ff9f4daa797ed6e38ed64bf6a1f0100000000000000008310612841577a184f03e93ff9f4daa797ed6e38ed64bf6a1f010000000000000000838161283757612836613f5f565b5b0492506040810190505b6d04ee2d6d415b85acef8100000000831061287e576d04ee2d6d415b85acef8100000000838161287457612873613f5f565b5b0492506020810190505b662386f26fc1000083106128ad57662386f26fc1000083816128a3576128a2613f5f565b5b0492506010810190505b6305f5e10083106128d6576305f5e10083816128cc576128cb613f5f565b5b0492506008810190505b61271083106128fb5761271083816128f1576128f0613f5f565b5b0492506004810190505b6064831061291e576064838161291457612913613f5f565b5b0492506002810190505b600a831061292d576001810190505b80915050919050565b60007f01ffc9a7000000000000000000000000000000000000000000000000000000007bffffffffffffffffffffffffffffffffffffffffffffffffffffffff1916827bffffffffffffffffffffffffffffffffffffffffffffffffffffffff1916149050919050565b6000604051905090565b600080fd5b600080fd5b60007fffffffff0000000000000000000000000000000000000000000000000000000082169050919050565b6129e9816129b4565b81146129f457600080fd5b50565b600081359050612a06816129e0565b92915050565b600060208284031215612a2257612a216129aa565b5b6000612a30848285016129f7565b91505092915050565b60008115159050919050565b612a4e81612a39565b82525050565b6000602082019050612a696000830184612a45565b92915050565b600081519050919050565b600082825260208201905092915050565b60005b83811015612aa9578082015181840152602081019050612a8e565b60008484015250505050565b6000601f19601f8301169050919050565b6000612ad182612a6f565b612adb8185612a7a565b9350612aeb818560208601612a8b565b612af481612ab5565b840191505092915050565b60006020820190508181036000830152612b198184612ac6565b905092915050565b6000819050919050565b612b3481612b21565b8114612b3f57600080fd5b50565b600081359050612b5181612b2b565b92915050565b600060208284031215612b6d57612b6c6129aa565b5b6000612b7b84828501612b42565b91505092915050565b600073ffffffffffffffffffffffffffffffffffffffff82169050919050565b6000612baf82612b84565b9050919050565b612bbf81612ba4565b82525050565b6000602082019050612bda6000830184612bb6565b92915050565b612be981612ba4565b8114612bf457600080fd5b50565b600081359050612c0681612be0565b92915050565b60008060408385031215612c2357612c226129aa565b5b6000612c3185828601612bf7565b9250506020612c4285828601612b42565b9150509250929050565b612c5581612b21565b82525050565b6000602082019050612c706000830184612c4c565b92915050565b600080600060608486031215612c8f57612c8e6129aa565b5b6000612c9d86828701612bf7565b9350506020612cae86828701612bf7565b9250506040612cbf86828701612b42565b9150509250925092565b6000819050919050565b612cdc81612cc9565b8114612ce757600080fd5b50565b600081359050612cf981612cd3565b92915050565b600060208284031215612d1557612d146129aa565b5b6000612d2384828501612cea565b91505092915050565b612d3581612cc9565b82525050565b6000602082019050612d506000830184612d2c565b92915050565b60008060408385031215612d6d57612d6c6129aa565b5b6000612d7b85828601612cea565b9250506020612d8c85828601612bf7565b9150509250929050565b600060208284031215612dac57612dab6129aa565b5b6000612dba84828501612bf7565b91505092915050565b612dcc81612a39565b8114612dd757600080fd5b50565b600081359050612de981612dc3565b92915050565b60008060408385031215612e0657612e056129aa565b5b6000612e1485828601612bf7565b9250506020612e2585828601612dda565b9150509250929050565b600080fd5b600080fd5b7f4e487b7100000000000000000000000000000000000000000000000000000000600052604160045260246000fd5b612e7182612ab5565b810181811067ffffffffffffffff82111715612e9057612e8f612e39565b5b80604052505050565b6000612ea36129a0565b9050612eaf8282612e68565b919050565b600067ffffffffffffffff821115612ecf57612ece612e39565b5b612ed882612ab5565b9050602081019050919050565b82818337600083830152505050565b6000612f07612f0284612eb4565b612e99565b905082815260208101848484011115612f2357612f22612e34565b5b612f2e848285612ee5565b509392505050565b600082601f830112612f4b57612f4a612e2f565b5b8135612f5b848260208601612ef4565b91505092915050565b60008060008060808587031215612f7e57612f7d6129aa565b5b6000612f8c87828801612bf7565b9450506020612f9d87828801612bf7565b9350506040612fae87828801612b42565b925050606085013567ffffffffffffffff811115612fcf57612fce6129af565b5b612fdb87828801612f36565b91505092959194509250565b60008060408385031215612ffe57612ffd6129aa565b5b600061300c85828601612bf7565b925050602061301d85828601612bf7565b9150509250929050565b600067ffffffffffffffff82111561304257613041612e39565b5b61304b82612ab5565b9050602081019050919050565b600061306b61306684613027565b612e99565b90508281526020810184848401111561308757613086612e34565b5b613092848285612ee5565b509392505050565b600082601f8301126130af576130ae612e2f565b5b81356130bf848260208601613058565b91505092915050565b6000806000606084860312156130e1576130e06129aa565b5b60006130ef86828701612bf7565b935050602084013567ffffffffffffffff8111156131105761310f6129af565b5b61311c8682870161309a565b925050604084013567ffffffffffffffff81111561313d5761313c6129af565b5b6131498682870161309a565b9150509250925092565b7f4e487b7100000000000000000000000000000000000000000000000000000000600052602260045260246000fd5b6000600282049050600182168061319a57607f821691505b6020821081036131ad576131ac613153565b5b50919050565b7f4552433732313a20617070726f76616c20746f2063757272656e74206f776e6560008201527f7200000000000000000000000000000000000000000000000000000000000000602082015250565b600061320f602183612a7a565b915061321a826131b3565b604082019050919050565b6000602082019050818103600083015261323e81613202565b9050919050565b7f4552433732313a20617070726f76652063616c6c6572206973206e6f7420746f60008201527f6b656e206f776e6572206f7220617070726f76656420666f7220616c6c000000602082015250565b60006132a1603d83612a7a565b91506132ac82613245565b604082019050919050565b600060208201905081810360008301526132d081613294565b9050919050565b7f4552433732313a2063616c6c6572206973206e6f7420746f6b656e206f776e6560008201527f72206f7220617070726f76656400000000000000000000000000000000000000602082015250565b6000613333602d83612a7a565b915061333e826132d7565b604082019050919050565b6000602082019050818103600083015261336281613326565b9050919050565b7f455243373231456e756d657261626c653a206f776e657220696e646578206f7560008201527f74206f6620626f756e6473000000000000000000000000000000000000000000602082015250565b60006133c5602b83612a7a565b91506133d082613369565b604082019050919050565b600060208201905081810360008301526133f4816133b8565b9050919050565b7f416363657373436f6e74726f6c3a2063616e206f6e6c792072656e6f756e636560008201527f20726f6c657320666f722073656c660000000000000000000000000000000000602082015250565b6000613457602f83612a7a565b9150613462826133fb565b604082019050919050565b600060208201905081810360008301526134868161344a565b9050919050565b7f455243373231456e756d657261626c653a20676c6f62616c20696e646578206f60008201527f7574206f6620626f756e64730000000000000000000000000000000000000000602082015250565b60006134e9602c83612a7a565b91506134f48261348d565b604082019050919050565b60006020820190508181036000830152613518816134dc565b9050919050565b7f4e487b7100000000000000000000000000000000000000000000000000000000600052603260045260246000fd5b7f4552433732313a20696e76616c696420746f6b656e2049440000000000000000600082015250565b6000613584601883612a7a565b915061358f8261354e565b602082019050919050565b600060208201905081810360008301526135b381613577565b9050919050565b7f4552433732313a2061646472657373207a65726f206973206e6f74206120766160008201527f6c6964206f776e65720000000000000000000000000000000000000000000000602082015250565b6000613616602983612a7a565b9150613621826135ba565b604082019050919050565b6000602082019050818103600083015261364581613609565b9050919050565b60008190508160005260206000209050919050565b60006020601f8301049050919050565b600082821b905092915050565b6000600883026136ae7fffffffffffffffffffffffffffffffffffffffffffffffffffffffffffffffff82613671565b6136b88683613671565b95508019841693508086168417925050509392505050565b6000819050919050565b60006136f56136f06136eb84612b21565b6136d0565b612b21565b9050919050565b6000819050919050565b61370f836136da565b61372361371b826136fc565b84845461367e565b825550505050565b600090565b61373861372b565b613743818484613706565b505050565b5b818110156137675761375c600082613730565b600181019050613749565b5050565b601f8211156137ac5761377d8161364c565b61378684613661565b81016020851015613795578190505b6137a96137a185613661565b830182613748565b50505b505050565b600082821c905092915050565b60006137cf600019846008026137b1565b1980831691505092915050565b60006137e883836137be565b9150826002028217905092915050565b61380182612a6f565b67ffffffffffffffff81111561381a57613819612e39565b5b6138248254613182565b61382f82828561376b565b600060209050601f8311600181146138625760008415613850578287015190505b61385a85826137dc565b8655506138c2565b601f1984166138708661364c565b60005b8281101561389857848901518255600182019150602085019450602081019050613873565b868310156138b557848901516138b1601f8916826137be565b8355505b6001600288020188555050505b505050505050565b7f4552433732313a207472616e736665722066726f6d20696e636f72726563742060008201527f6f776e6572000000000000000000000000000000000000000000000000000000602082015250565b6000613926602583612a7a565b9150613931826138ca565b604082019050919050565b6000602082019050818103600083015261395581613919565b9050919050565b7f4552433732313a207472616e7366657220746f20746865207a65726f2061646460008201527f7265737300000000000000000000000000000000000000000000000000000000602082015250565b60006139b8602483612a7a565b91506139c38261395c565b604082019050919050565b600060208201905081810360008301526139e7816139ab565b9050919050565b7f4552433732313a20617070726f766520746f2063616c6c657200000000000000600082015250565b6000613a24601983612a7a565b9150613a2f826139ee565b602082019050919050565b60006020820190508181036000830152613a5381613a17565b9050919050565b7f4552433732313a207472616e7366657220746f206e6f6e20455243373231526560008201527f63656976657220696d706c656d656e7465720000000000000000000000000000602082015250565b6000613ab6603283612a7a565b9150613ac182613a5a565b604082019050919050565b60006020820190508181036000830152613ae581613aa9565b9050919050565b600081905092915050565b6000613b0282612a6f565b613b0c8185613aec565b9350613b1c818560208601612a8b565b80840191505092915050565b6000613b348285613af7565b9150613b408284613af7565b91508190509392505050565b7f45524337323155524953746f726167653a2055524920736574206f66206e6f6e60008201527f6578697374656e7420746f6b656e000000000000000000000000000000000000602082015250565b6000613ba8602e83612a7a565b9150613bb382613b4c565b604082019050919050565b60006020820190508181036000830152613bd781613b9b565b9050919050565b7f416363657373436f6e74726f6c3a206163636f756e7420000000000000000000600082015250565b6000613c14601783613aec565b9150613c1f82613bde565b601782019050919050565b7f206973206d697373696e6720726f6c6520000000000000000000000000000000600082015250565b6000613c60601183613aec565b9150613c6b82613c2a565b601182019050919050565b6000613c8182613c07565b9150613c8d8285613af7565b9150613c9882613c53565b9150613ca48284613af7565b91508190509392505050565b600081519050919050565b600082825260208201905092915050565b6000613cd782613cb0565b613ce18185613cbb565b9350613cf1818560208601612a8b565b613cfa81612ab5565b840191505092915050565b6000608082019050613d1a6000830187612bb6565b613d276020830186612bb6565b613d346040830185612c4c565b8181036060830152613d468184613ccc565b905095945050505050565b600081519050613d60816129e0565b92915050565b600060208284031215613d7c57613d7b6129aa565b5b6000613d8a84828501613d51565b91505092915050565b7f455243373231456e756d657261626c653a20636f6e736563757469766520747260008201527f616e7366657273206e6f7420737570706f727465640000000000000000000000602082015250565b6000613def603583612a7a565b9150613dfa82613d93565b604082019050919050565b60006020820190508181036000830152613e1e81613de2565b9050919050565b7f4e487b7100000000000000000000000000000000000000000000000000000000600052601160045260246000fd5b6000613e5f82612b21565b9150613e6a83612b21565b9250828202613e7881612b21565b91508282048414831517613e8f57613e8e613e25565b5b5092915050565b6000613ea182612b21565b9150613eac83612b21565b9250828201905080821115613ec457613ec3613e25565b5b92915050565b6000613ed582612b21565b915060008203613ee857613ee7613e25565b5b600182039050919050565b7f537472696e67733a20686578206c656e67746820696e73756666696369656e74600082015250565b6000613f29602083612a7a565b9150613f3482613ef3565b602082019050919050565b60006020820190508181036000830152613f5881613f1c565b9050919050565b7f4e487b7100000000000000000000000000000000000000000000000000000000600052601260045260246000fd5b7f4552433732313a206d696e7420746f20746865207a65726f2061646472657373600082015250565b6000613fc4602083612a7a565b9150613fcf82613f8e565b602082019050919050565b60006020820190508181036000830152613ff381613fb7565b9050919050565b7f4552433732313a20746f6b656e20616c7265616479206d696e74656400000000600082015250565b6000614030601c83612a7a565b915061403b82613ffa565b602082019050919050565b6000602082019050818103600083015261405f81614023565b9050919050565b600061407182612b21565b915061407c83612b21565b925082820390508181111561409457614093613e25565b5b92915050565b7f4e487b7100000000000000000000000000000000000000000000000000000000600052603160045260246000fdfea2646970667358221220070b3889102486751e0645cd274ef200f404b341c9bf8f882d0285115c224c7964736f6c63430008130033",
  "linkReferences": {},
  "deployedLinkReferences": {}
}